:100000000C9434000C9446000C9446000C9446006A
:100010000C9446000C9446000C9446000C94460048
:100020000C9446000C9446000C9446000C94460038
:100030000C9446000C9446000C9446000C94460028
:100040000C9446000C9446000C9446000C94460018
:100050000C9446000C9446000C9446000C94460008
:100060000C9446000C94460011241FBECFEFD8E03C
:10007000DEBFCDBF21E0A0E0B1E001C01D92A13004
:10008000B207E1F70E942D010C9443010C9400008B
:100090000895CF93C82F8FEF9CE70197F1F700C029
:1000A00000000E94C3000E94CF00909100019111B6
:1000B0003EC08C2F0E94E00090910001911137C04A
:1000C00080E30E94060190910001911130C08FE001
:1000D00097E20197F1F700C0000080E30E9406015B
:1000E00090910001911123C08BED90E00197F1F701
:1000F00000C0000080E30E94060190910001911170
:1001000016C095E89A95F1F7000080E20E9406017A
:100110009091000191110BC085E88A95F1F70000DC
:1001200088E20E940601C0910001CC2321F0809357
:100130000001C1E002C00E9428018C2FCF910895D8
:10014000CF930E94CF0090910001911104C0809341
:10015000000181E014C087E20E94F200C82F809164
:100160000001813039F00E941701982F8091000121
:10017000813019F4C093000102C0892F8078CF919B
:10018000089580E0089588E08093B800E9EBF0E0FE
:100190008081908182708160892B8083089584EAB8
:1001A0008093BC008091BC0087FFFCCF9091B90088
:1001B000987F983019F081E0903109F480E008953B
:1001C000880F8093BB0084EC8093BC008091BC00BE
:1001D00087FFFCCF9091B900987F81E0983109F4B6
:1001E00080E00895880F990B81608093BB0084ECB8
:1001F0008093BC008091BC0087FFFCCF9091B90038
:10020000987F81E0903409F480E008958093BB00EA
:1002100084EC8093BC008091BC0087FFFCCF909160
:10022000B900987F81E0983209F480E0089584E86D
:100230008093BC008091BC0087FFFCCF8091B90007
:10024000887F883519F48091BB00089581E0089576
:1002500084E98093BC00089508951F93CF93DF93A2
:1002600047E2C0E06C2F10E0712FD0E08D2F0E948C
:100270004800E12FFD2F8C2F099580E090E0DF9161
:0A028000CF911F910895F894FFCF6D
:00000001FF
