:100000000C9434000C9451000C9451000C94510049
:100010000C9451000C9451000C9451000C9451001C
:100020000C9451000C9451000C9451000C9451000C
:100030000C9451000C9451000C9451000C945100FC
:100040000C9451000C9451000C9451000C945100EC
:100050000C9451000C9451000C9451000C945100DC
:100060000C9451000C94510011241FBECFEFD8E026
:10007000DEBFCDBF11E0A0E0B1E0E0ECF2E002C0F5
:1000800005900D92A230B107D9F721E0A2E0B1E0CE
:1000900001C01D92A330B207E1F70E9448010C9401
:1000A0005E010C9400000895CF93C82F8FEF9CE75A
:1000B0000197F1F700C000000E94C3000E94CF002A
:1000C000811135C08C2F0E94EB00811130C080E37C
:1000D0000E94170181112BC08FE097E20197F1F781
:1000E00000C0000080E30E941701811120C08BED49
:1000F00090E00197F1F700C0000080E30E94170133
:10010000811115C095E89A95F1F7000080E20E94F0
:10011000170181110CC085E88A95F1F7000088E28B
:100120000E941701811103C00E94440180E0CF9119
:1001300008950E94CF00811105C087E20E9400014E
:10014000882339F091E0909302018093000181E0CF
:1001500008950E942B0180770895CF93C82F0E94A5
:10016000CF0081110EC087E20E94EB00811109C00F
:100170008C2F8E7F0E941701811103C00E944401C1
:1001800080E0CF91089588E08093B800E9EBF0E03B
:100190008081908182708160892B80830895809115
:1001A000B90087758093B90084EA8093BC00809180
:1001B000BC0087FFFCCF8091B900887F883049F070
:1001C0008091B900887F803121F08091B900887FCB
:1001D000089580E00895880F8093BB0084EC80939D
:1001E000BC008091BC0087FFFCCF8091B900887F64
:1001F000883121F08091B900887F089580E00895CA
:10020000880F990B81608093BB0084EC8093BC00C5
:100210008091BC0087FFFCCF8091B900887F80343B
:1002200021F08091B900887F089580E0089580933F
:10023000BB0084EC8093BC008091BC0087FFFCCFA6
:100240008091B900887F883221F08091B900887F41
:10025000089580E0089584E88093BC008091BC00FC
:1002600087FFFCCF8091B900887F883551F081E00D
:10027000809302018091B900887F8093000181E022
:1002800008958091BB00089584E98093BC0008958F
:100290001F93CF93DF9347E2C0E06C2F10E0712FE4
:1002A000D0E08D2F0E945300E12FFD2F8C2F099558
:1002B00080E090E0DF91CF911F910895F894FFCFF7
:0202C000FF003D
:00000001FF
