:100000000C9434000C9451000C9451000C94510049
:100010000C9451000C9451000C9451000C9451001C
:100020000C9451000C9451000C9451000C9451000C
:100030000C9451000C9451000C9451000C945100FC
:100040000C9451000C9451000C9451000C945100EC
:100050000C9451000C9451000C9451000C945100DC
:100060000C9451000C94510011241FBECFEFD8E026
:10007000DEBFCDBF11E0A0E0B1E0E2EAF2E002C0F5
:1000800005900D92A230B107D9F721E0A2E0B1E0CE
:1000900001C01D92A330B207E1F70E9439010C9410
:1000A0004F010C9400000895CF93C82F0E94C00008
:1000B00081110EC087E20E94DC00811109C08C2FE3
:1000C0008E7F0E940801811103C00E94350180E0EB
:1000D000CF91089584E00E940801811108C000C0FA
:1000E00000C00E940801811102C000C000C0089534
:1000F000CF93C82F8FEF9CE70197F1F700C0000066
:100100000E94B4000E94C00081112CC08C2F0E945C
:10011000DC00811127C080E30E940801811122C008
:100120008FE097E20197F1F700C000000E946A009B
:100130008BED90E00197F1F700C000000E946A008B
:1001400095E89A95F1F7000080E20E94080181117C
:1001500009C00E946A0085E88A95F1F700000E94B4
:10016000350180E0CF91089588E08093B800E9EBF5
:10017000F0E08081908182708160892B8083089576
:100180008091B90087758093B90084EA8093BC00A0
:100190008091BC0087FFFCCF8091B900887F8830B8
:1001A00049F08091B900887F803121F08091B900B9
:1001B000887F089580E00895880F8093BB0084ECC9
:1001C0008093BC008091BC0087FFFCCF8091B90078
:1001D000887F883121F08091B900887F089580E080
:1001E0000895880F990B81608093BB0084EC809305
:1001F000BC008091BC0087FFFCCF8091B900887F54
:10020000803421F08091B900887F089580E00895BE
:100210008093BB0084EC8093BC008091BC0087FF7E
:10022000FCCF8091B900887F883221F08091B9009D
:10023000887F089580E0089584E88093BC008091D1
:10024000BC0087FFFCCF8091B900887F883551F0D2
:1002500081E0809302018091B900887F8093000142
:1002600081E008958091BB00089584E98093BC00EB
:1002700008951F93CF93DF9347E2C0E06C2F10E007
:10028000712FD0E08D2F0E945300E12FFD2F8C2F76
:10029000099580E090E0DF91CF911F910895F89447
:0202A000FFCF8E
:0202A200FF005B
:00000001FF
