:100000000C942D010C944A010C944A010C944A0161
:100010000C944A010C944A010C944A010C944A0134
:100020000C944A010C944A010C944A010C944A0124
:100030000C944A010C944A010C944A010C944A0114
:100040000C944A010C944A010C944A010C944A0104
:100050000C944A010C944A010C944A010C944A01F4
:100060000C944A010C944A010000000000818118A0
:1000700081810007000700147F147F14242A7F2A3F
:10008000122313086462364955225000050300000C
:10009000001C2241000041221C0014083E081408E4
:1000A000083E0808005030000008080808080060F2
:1000B00060000020100804023E5149453E00427F86
:1000C000400042615149462141454B311814127F8D
:1000D0001027454545393C4A494930017109050316
:1000E0003649494936064949291E0036360000007E
:1000F0005636000008142241001414141414004150
:100100002214080201510906324979413E7E11113B
:10011000117E7F494949363E414141227F4141227A
:100120001C7F494949417F090909013E4149497AF2
:100130007F0808087F00417F41002040413F017F48
:10014000081422417F404040407F020C027F7F0420
:1001500008107F3E4141413E7F090909063E415159
:10016000215E7F09192946464949493101017F012C
:10017000013F4040403F1F2040201F3F4038403F4C
:100180006314081463070870080761514945430068
:100190007F41410002040810200041417F00040219
:1001A0000102044040404040000102040020545439
:1001B00054787F48444438384444442038444448C0
:1001C0007F3854545418087E0901020C5252523E92
:1001D0007F0804047800447D40002040443D007FB7
:1001E0001028440000417F40007C041804787C08FB
:1001F00004047838444444387C1414140808141453
:10020000147C7C080404084854545420043F44409F
:10021000203C4040207C1C2040201C3C4030403C86
:1002200044281028440C5050503C4464544C440022
:100230000836410000007F00000041360800100829
:1002400008100800000000000500960100C8110118
:100250000A3A05010036A000C82911241FBECFEFBD
:10026000D8E0DEBFCDBF11E0A0E0B1E0EEEDF3E1FC
:1002700002C005900D92AC31B107D9F721E0ACE195
:10028000B1E001C01D92A132B207E1F70E94FA0667
:100290000C94ED090C940000CF93DF9300D000D0B4
:1002A00000D0CDB7DEB726960FB6F894DEBF0FBEEE
:1002B000CDBFDF91CF910895EF92FF920F931F93DF
:1002C000CF93DF93CDB7DEB72A970FB6F894DEBF92
:1002D0000FBECDBF182F082F0460802F0E949303FC
:1002E00082E08A95F1F700C0802F002E000C990B58
:1002F0009F930F9380E091E09F938F93CE0101969F
:100300007C019F938F930E94030740E050E060E0E0
:1003100070E0C7010E9487051B7F812F0E94930315
:1003200092E09A95F1F700C0812F012E000C990BF5
:100330009F931F9386E091E09F938F93FF92EF929C
:100340000E94030740E050E060E070E0C7010E94B7
:1003500087050FB6F894DEBF0FBECDBF2A960FB645
:10036000F894DEBF0FBECDBFDF91CF911F910F91EB
:10037000FF90EF900895AF92BF92DF92EF92FF92BD
:100380000F931F93CF93DF93CDB7DEB72A970FB6A6
:10039000F894DEBF0FBECDBFF82E862F807FD82EFB
:1003A00090E16902800111240E9459038F2D0E945F
:1003B0006B031D2D1460812F0E94930382E08A95A8
:1003C000F1F700C0812F012E000C990B9F931F9312
:1003D00080E0A82E81E0B82EBF92AF92CE010196A8
:1003E0007C019F938F930E94030740E050E060E000
:1003F00070E0C7010E9487058D2D0E94930392E053
:100400009A95F1F700C08D2D0D2C000C990B9F9340
:10041000DF928CE091E09F938F93FF92EF920E9486
:10042000030740E050E060E070E0C7010E948705EC
:10043000102F1460812F0E94930382E08A95F1F7B8
:1004400000C0812F012E000C990B9F931F93BF9228
:10045000AF92FF92EF920E94030740E050E060E00D
:1004600070E0C7010E9487050B7F802F0E949303D5
:1004700092E09A95F1F700C0802F002E000C990BA6
:100480009F930F9386E091E09F938F93FF92EF925B
:100490000E94030740E050E060E070E0C7010E9466
:1004A00087050E9413030FB6F894DEBF0FBECDBFC1
:1004B0002A960FB6F894DEBF0FBECDBFDF91CF9165
:1004C0001F910F91FF90EF90DF90BF90AF90089534
:1004D000CF93C82F0E9459038C2F0E946B0382E098
:1004E0000E9493030E9459038C2F0E947E030E9456
:1004F000A503C82F0E94A503C7FDF9CFCF910C9487
:1005000013030E94BB012FE788E391E02150804054
:100510009040E1F700C000000895CF93DF93C82F0B
:100520008FEF9CE70197F1F700C000000E94FD02E9
:100530000E94590380911C01882311F0D1E039C039
:100540008C2F0E946B03D0911C01D111F7CF80E357
:100550000E945C018FE097E20197F1F700C0000074
:1005600080E30E945C018BED90E00197F1F700C001
:10057000000080E30E945C0195E89A95F1F7000085
:1005800080E20E945C0185E88A95F1F700000E94F4
:10059000130368E28C2F0E94810268E08C2F0E9476
:1005A000810261E08C2F0E94810266E08C2F0E9404
:1005B00081028D2FDF91CF91089561315CF443303A
:1005C0004CF4442319F0413039F4605C60680E94B7
:1005D000810202C081E0089580E0089561E00C94FA
:1005E00081026CE00C9481026EE00C9481026FE059
:1005F0000C9481020895089508950E94F0068FEFEB
:100600009FEF0E9497066AE085E00E945A0588E005
:100610008093B800E9EBF0E0808190818270816086
:10062000892B8083089584E98093BC0008950F93FB
:100630001F93CF93DF93CDB7DEB72A970FB6F89409
:10064000DEBF0FBECDBF182F062F64E185E00E94EC
:100650005A05802F002E000C990B9F930F93812F2A
:10066000012E000C990B9F931F9382E191E09F93C1
:100670008F938E010F5F1F4F1F930F930E940307ED
:1006800040E050E060E070E0C8010E9487050E94F1
:10069000A7060FB6F894DEBF0FBECDBF2A960FB6E1
:1006A000F894DEBF0FBECDBFDF91CF911F910F91A8
:1006B000089584EA8093BC008091BC0087FFFCCF42
:1006C0008091B900887F883029F0803119F068E086
:1006D0000C9417030895880F8093BB0084EC8093DB
:1006E000BC008091BC0087FFFCCF8091B900887F5F
:1006F000883119F068E10C9417030895880F990B5D
:1007000081608093BB0084EC8093BC008091BC002E
:1007100087FFFCCF8091B900887F803419F060E4B6
:100720000C94170308958093BB0084EC8093BC0065
:100730008091BC0087FFFCCF8091B900887F883210
:1007400019F068E20C941703089584E88093BC00C4
:100750008091BC0087FFFCCF8091B900887F8835ED
:1007600019F068E50E9417038091BB0008955F9A15
:10077000579A2FEF81EE94E0215080409040E1F7AE
:1007800000C000005F982FEF81EE94E02150804080
:100790009040E1F700C000005F9A089584B18D6237
:1007A00084B98CB580658CBD8DB581608DBD089593
:1007B0002A9828988EBD0DB407FEFDCF2A9A8EB5D3
:1007C00008952A98289A8EBD0DB407FEFDCF2A9A67
:1007D0008EB508952A98289A9EBD0DB407FEFDCFC8
:1007E0008EBD0DB407FEFDCF2A9A8EB50895CF9326
:1007F000DF938238C0F46238B0F4C62FD82F80E37C
:100800000E94D80380E00E94E1038D2F0E94E10343
:1008100080E00E94E1038C2F0E94E10382E10E94AC
:10082000D80381E001C080E0DF91CF9108950F935C
:100830001F93CF93DF93681710F1613A00F52417E7
:10084000F0F02238E0F4C22F142FD62F082F8AE2BE
:100850000E94D803802F90E00E94EA038D2F90E041
:100860000E94EA038BE20E94D803812F90E00E944D
:10087000EA038C2F90E00E94EA0380E001C081E04F
:10088000DF91CF911F910F910895EF92FF920F93F7
:100890001F93CF93DF938C017B018CE20E94D803DE
:1008A000E701209729F0C8010E94EA032197F9CFB8
:1008B000DF91CF911F910F91FF90EF900895CF930B
:1008C000DF93EA01262F462F682F0E94170461E06C
:1008D00070E0CE01DF91CF910C944504AF92BF92AE
:1008E000CF92DF92EF92FF920F931F93CF93DF93FC
:1008F000EB014115510589F535E0E32E082E000C7A
:10090000990B8097E89E6001E99ED00C1124EA942F
:100910008FEFE81609F45BC0F601EE0DF11DE85902
:10092000FF4FE49148E0F42E0E2F10E0FA948FEF81
:10093000F81669F3C8010F2C02C0959587950A94A3
:10094000E2F780FFF3CF60911F016F0D80911D01D1
:10095000AE018E0D0E945F04E9CF4038510509F0C9
:100960003CC015E0082E000C990B8097189F600181
:10097000199FD00C1124115050F1F601E10FF11D17
:10098000E859FF4FE49108E0EE2EF12C015098F366
:10099000C701002E02C0959587950A94E2F780FF63
:1009A000F5CF60911F01B02EBB0C6B0D80911D0126
:1009B000AE01810F0E945F0460911F016B0D6F5F9C
:1009C00080911D01AE01810F0E945F04DFCF8091F5
:1009D0001D0190911E0105965DC04138510509F039
:1009E0005DC095E0F92E082E000C990B8097F89EBB
:1009F0006001F99ED00C1124FA948FEFF81609F4D7
:100A000044C0F601EF0DF11DE859FF4FE491AF2C02
:100A1000AA0C28E0B22E0E2F10E0BA948FEFB81671
:100A200059F3C8010B2C02C0959587950A94E2F7FB
:100A300080FFF3CF60911F01EB2CEE0C6E0D8091C7
:100A40001D01AE018A0D0E945F0460911F016E0DB1
:100A50006F5F80911D01AE018A0D0E945F0460915D
:100A60001F016E0D80911D018F5FAE018A0D0E94E6
:100A70005F0460911F016E0D6F5F80911D018F5F9C
:100A8000AE018A0D0E945F04C8CF80911D01909134
:100A90001E010B9690931E0180931D0180E0DF9153
:100AA000CF911F910F91FF90EF90DF90CF90BF906B
:100AB000AF900895823A50F06338A0F470E07093DC
:100AC000200160931F0182E090E006C070E0709307
:100AD000200160931F0190E090931E0180931D01FF
:100AE00080E0089581E00895823A68F0461768F042
:100AF00070E07093200160931F0182E090E090937A
:100B00001E0180931D0180E0089581E00895BF9249
:100B1000CF92DF92EF92FF920F931F93CF93DF93C9
:100B20006B018A019A0144E0369527954A95E1F7D1
:100B3000C8E0C20FD2E8DC1B7C01802F8F70B82E7A
:100B4000F70180818823A9F060911F016C0F8091CB
:100B50001D018B5F98014D2F8B0D0E947405811133
:100B6000EFCFA801B601F70181917F010E946E04C9
:100B7000E7CFDF91CF911F910F91FF90EF90DF9022
:100B8000CF90BF9008956F927F928F929F92AF9275
:100B9000BF92CF92DF92EF92FF920F931F93CF936A
:100BA000DF93E82E862EF42E922E262F30E0281B7F
:100BB0003109892D90E0841B910937FF06C03195DA
:100BC0002195310977247A9402C07724739497FF92
:100BD00006C091958195910966246A9402C06624A5
:100BE00063946C01CC0CDD1C5901AA0CBB1C821750
:100BF00093079CF4E601C21BD30BA8016F2D8E2D29
:100C00000E945F04E814D9F0E70CD7FD03C0F60C8E
:100C1000CA19DB09CC0DDD1DF0CFEC01CA19DB09C7
:100C2000A8016F2D8E2D0E945F04F91441F0F60C7F
:100C30001C161D069CF3E70CCC0DDD1DEFCF81E0EB
:100C4000DF91CF911F910F91FF90EF90DF90CF90A8
:100C5000BF90AF909F908F907F906F9008950F936B
:100C60001F93CF93DF93D82F8901C82F861708F4DD
:100C7000C62F242F6C2F8D2F0E9417046C2F70E02D
:100C80006D1B7109C801DF91CF911F910F910C94D9
:100C900045040F931F93CF93DF93D62F8901C62F5F
:100CA000641708F4C42F2C2F4D2F682F0E941704AF
:100CB0006C2F70E06D1B7109C801DF91CF911F91FE
:100CC0000F910C944504EF92FF920F931F93CF93D3
:100CD000DF93E82ED62FF42EC22F681710F4E62EDD
:100CE000D82FCF1518F48F2DFC2EC82F2C2F4F2D59
:100CF0006D2F8E2D0E9417048D2F90E08E19910973
:100D000001962C2F30E02F1931092F5F3F4F829F22
:100D1000B001839F700D929F700D1124C801DF9167
:100D2000CF911F910F91FF90EF900C944504CF93BA
:100D3000DF93EC0121E840E060EA80E00E941704C4
:100D400062EC71E5CE01DF91CF910C94450489E20C
:100D50000C94D803882341F0EFECF7E03197F1F7DA
:100D600000C000008150F6CF0895BF92CF92DF926D
:100D7000EF92FF920F931F93CF93DF93EC01219695
:100D8000FC011491112311F1FE01B49031960491EC
:100D90007E01F3E0EF0EF11CFE01329684910E9479
:100DA000D803CB2D6701CC2349F0F60184910E9432
:100DB000E103C150C60101966C01F5CFE701CB0DEF
:100DC000D11D802F0E94AA061150DCCFDF91CF9158
:100DD0001F910F91FF90EF90DF90CF90BF900895FB
:100DE000219A299A0E94CE030E94B70388E492E0D8
:100DF0000C94B50687E20E948D0287E20E94F10200
:100E000080E090E00895AEE0B0E0E9E0F7E00C9417
:100E1000C4090D891E8986E08C831A8309838FEFAC
:100E20009FE79E838D83AE01475E5F4F6F89788D0C
:100E3000CE0101960E942507EF81F885E00FF11F92
:100E400010822E96E4E00C94E009ABE0B0E0EBE217
:100E5000F7E00C94B6096C017B018A01FC01178252
:100E60001682838181FFCCC1CE0101963C01F6013F
:100E70009381F70193FD859193FF81917F018823F1
:100E800009F4BAC1853239F493FD859193FF8191BC
:100E90007F01853229F4B60190E00E941C09E7CF5A
:100EA000912C212C312CFFE1F315D8F08B3279F005
:100EB00038F4803279F08332A1F4232D20611DC0F3
:100EC0008D3261F0803369F4232D216016C0832DAB
:100ED0008260382EE32DE4603E2E2AC0F32DF860A8
:100EE0001DC037FC2DC020ED280F2A3040F08E3277
:100EF000B9F436FC81C1232D2064322E19C036FE90
:100F000006C08AE0989E200D1124922E11C0EAE0BE
:100F10002E9E200D1124222EF32DF0623F2E08C0AC
:100F20008C3621F4832D8068382E02C0883641F437
:100F3000F70193FD859193FF81917F018111B3CFDB
:100F4000982F9F7D9554933028F40C5F1F4F9FE39B
:100F500099830DC0833631F0833771F0833509F002
:100F600059C021C0F801808189830E5F1F4F8824FA
:100F70008394912C530113C02801F2E04F0E511CB1
:100F8000F801A080B18036FE03C0692D70E002C078
:100F90006FEF7FEFC5010E9411094C018201F32D13
:100FA000FF773F2E16C0280122E0420E511CF801A7
:100FB000A080B18036FE03C0692D70E002C06FEFE3
:100FC0007FEFC5010E9406094C01F32DF0683F2E0A
:100FD000820133FC1BC0822D90E088169906B0F484
:100FE000B60180E290E00E941C092A94F4CFF5013A
:100FF00037FC859137FE81915F01B60190E00E9438
:101000001C0921102A9421E0821A9108811491046C
:1010100071F7E8C0843611F0893641F5F80137FEE2
:1010200007C060817181828193810C5F1F4F08C06E
:1010300060817181072E000C880B990B0E5F1F4F8A
:10104000F32DFF763F2E97FF09C090958095709500
:1010500061957F4F8F4F9F4FF0683F2E2AE030E021
:10106000A3010E945809882E861845C0853731F49F
:10107000232D2F7EB22E2AE030E025C0932D997FBC
:10108000B92E8F36C1F018F4883579F0B5C08037A5
:1010900019F0883721F0B0C0E92FE061BE2EB4FE10
:1010A0000DC0FB2DF460BF2E09C034FE0AC0292FED
:1010B0002660B22E06C028E030E005C020E130E016
:1010C00002C020E132E0F801B7FE07C06081718103
:1010D000828193810C5F1F4F06C06081718180E027
:1010E00090E00E5F1F4FA3010E945809882E8618BA
:1010F000FB2DFF773F2E36FE0DC0232D2E7FA22E17
:10110000891458F434FE0BC032FC09C0832D8E7E46
:10111000A82E05C0B82CA32C03C0B82C01C0B92C34
:10112000A4FE0FC0FE01E80DF11D8081803321F483
:101130009A2D997EA92E09C0A2FE06C0B394B3943D
:1011400004C08A2D867809F0B394A3FC11C0A0FED8
:1011500006C0B21488F4280C922C9B180EC0B2144E
:1011600060F4B60180E290E00E941C09B394F7CFCE
:10117000B21418F42B1802C0982C212CA4FE10C015
:10118000B60180E390E00E941C09A2FE17C0A1FCFA
:1011900003C088E790E002C088E590E0B6010CC08B
:1011A0008A2D867859F0A1FE02C08BE201C080E250
:1011B000A7FC8DE2B60190E00E941C09891438F466
:1011C000B60180E390E00E941C099A94F7CF8A94BC
:1011D000F301E80DF11D8081B60190E00E941C0929
:1011E0008110F5CF222009F442CEB60180E290E0D2
:1011F0000E941C092A94F6CFF6018681978102C0CD
:101200008FEF9FEF2B96E2E10C94D209FC01059041
:10121000615070400110D8F7809590958E0F9F1FF8
:101220000895FC016150704001900110D8F780953D
:1012300090958E0F9F1F08950F931F93CF93DF9369
:10124000FB01238121FD03C08FEF9FEF2CC022FF04
:1012500016C046815781248135814217530744F4D3
:10126000A081B1819D012F5F3F4F318320838C93FB
:10127000268137812F5F3F4F3783268314C08B0130
:10128000EC01FB010084F185E02D0995892BE1F645
:10129000D80116968D919C911797019617969C935D
:1012A0008E931697CE01DF91CF911F910F910895E4
:1012B000FA01AA27283051F1203181F1E8946F9387
:1012C0006E7F6E5F7F4F8F4F9F4FAF4FB1E03ED02D
:1012D000B4E03CD0670F781F891F9A1FA11D680FCB
:1012E000791F8A1F911DA11D6A0F711D811D911DFE
:1012F000A11D20D009F468943F912AE0269F112473
:101300003019305D3193DEF6CF010895462F4770D6
:10131000405D4193B3E00FD0C9F7F6CF462F4F7031
:10132000405D4A3318F0495D31FD4052419302D08F
:10133000A9F7EACFB4E0A695979587957795679535
:10134000BA95C9F700976105710508959B01AC0135
:101350000A2E06945795479537952795BA95C9F75C
:10136000620F731F841F951FA01D08952F923F9237
:101370004F925F926F927F928F929F92AF92BF92A5
:10138000CF92DF92EF92FF920F931F93CF93DF9351
:10139000CDB7DEB7CA1BDB0B0FB6F894DEBF0FBEAE
:1013A000CDBF09942A88398848885F846E847D84FB
:1013B0008C849B84AA84B984C884DF80EE80FD80FD
:1013C0000C811B81AA81B981CE0FD11D0FB6F89473
:0E13D000DEBF0FBECDBFED010895F894FFCF34
:1013DE00252E32782D00252E32782000252E3278BB
:0C13EE003A00257820213D2025780000E1
:00000001FF
