:100000000C9434000C9451000C9451000C94510049
:100010000C9451000C9451000C9451000C9451001C
:100020000C9451000C9451000C9451000C9451000C
:100030000C9451000C9451000C9451000C945100FC
:100040000C9451000C9451000C9451000C945100EC
:100050000C9451000C9451000C9451000C945100DC
:100060000C9451000C94510011241FBECFEFD8E026
:10007000DEBFCDBF11E0A0E0B1E0E2E3FCE002C0F2
:1000800005900D92A433B107D9F721E0A4E3B1E0C4
:1000900001C01D92A533B207E1F70E94D8020C946B
:1000A00017060C940000CF93C82F84600E946A0149
:1000B00000C000C08C2F8B7F0E946A0100C000C06E
:1000C000CF910895CF93C82F0E946A018C2FCF91B2
:1000D0000C9453001F93CF93DF93182FD62FD07F0C
:1000E000D42B80E16802B0011124C42FC62B0E94DA
:1000F0004401812F0E944E018D2F0E946A018D2F95
:100100000E9453008C2F0E946A018C2F0E94530082
:10011000DF91CF911F910C948201089548E00E94D5
:100120006A002FE788E391E0215080409040E1F79A
:1001300000C000000895CF93DF93C82F8FEF9CE796
:100140000197F1F700C000000E9438010E944401AD
:1001500080913401882311F0D1E039C08C2F0E94A6
:100160004E01D0913401D111F7CF80E30E9462009B
:100170008FE097E20197F1F700C0000080E30E9452
:1001800062008BED90E00197F1F700C0000080E382
:100190000E94620095E89A95F1F7000080E20E94C3
:1001A000620085E88A95F1F700000E94820168E20A
:1001B0008C2F0E948E0068E08C2F0E948E0061E0E0
:1001C0008C2F0E948E0066E08C2F0E948E008D2F57
:1001D000DF91CF91089549E00C946A0061315CF49D
:1001E00043304CF4442319F0413039F4605C6068CA
:1001F0000E948E0002C081E0089580E0089561E0D1
:100200000C948E006CE00C948E006EE00C948E00CA
:100210006FE00C948E000C94EB001F93CF93DF9350
:10022000182FEB016991662321F0812F0E94EB00CA
:10023000F9CFDF91CF911F910895CF93C62FC77F3C
:1002400021F4443021F0442341F0C1E00EC061119B
:1002500002C064E105C06CE103C0611104C060E14B
:100260000E948E0002C068E1FBCF8C2FCF910895D1
:1002700088E08093B800E9EBF0E0808190818270A3
:100280008160892B8083089584EA8093BC008091EB
:10029000BC0087FFFCCF8091B9000895880F809340
:1002A000BB0084EC8093BC008091BC0087FFFCCF36
:1002B0008091B9000895880F990B81608093BB00ED
:1002C00084EC8093BC008091BC0087FFFCCF8091C0
:1002D000B90008958093BB0084EC8093BC008091AA
:1002E000BC0087FFFCCF8091B900089584E880931B
:1002F000BC008091BC0087FFFCCF8091B900809149
:10030000BB00089584E98093BC00089508950E947D
:10031000D00187E20E949B0087E20E94FF0087E2F3
:100320000E94020160E071E087E20E940D0141E05D
:1003300060E087E20E94EE0067E071E087E20E94E1
:100340000D0181E090E00E94E401C12CD12C7601E6
:10035000CA9481E090E00E94E401EC0140E067E093
:1003600087E20E94EE009E01A8E8B3E10E94FC0231
:10037000A70196010E94DD02CA01B9014EE051E0D9
:100380000E94FC01BC0187E20E940D012FEF84E373
:100390009CE0215080409040E1F700C00000D9CFA0
:1003A000ECE7F0E0808180648083808180628083DC
:1003B000EAE7F0E08081886880838081887F80839D
:1003C000808186608083089590917C00987F9093CF
:1003D0007C0090917C008770982B90937C0080919A
:1003E0007A00806480937A0080917A0084FDFCCF4B
:1003F0008091790090E00895CF93DF93EA016A300D
:10040000710581059105A8F49F938F937F936F9356
:1004100082E191E09F938F93DF934F930E942D038E
:100420008DB79EB708960FB6F8949EBF0FBE8DBFCE
:10043000BBC06436710581059105A8F49F938F9325
:100440007F936F938AE191E09F938F93DF934F9314
:100450000E942D038DB79EB708960FB6F8949EBFE5
:100460000FBE8DBFA1C0683E23E0720781059105D4
:10047000A8F49F938F937F936F9381E291E09F9372
:100480008F93DF934F930E942D038DB79EB70896ED
:100490000FB6F8949EBF0FBE8DBF86C0603127E2B5
:1004A000720781059105C8F59F938F937F936F9392
:1004B00083E291E09F938F93DF934F930E942D03EC
:1004C0008B81282F082E000C330B3F938F938A814A
:1004D000282F082E000C330B3F938F938981282FF0
:1004E000082E000C330B3F938F938881282F082E02
:1004F000000C330B3F938F9389E291E09F938F938E
:10050000DF93CF930E942D038DB79EB744960FB60D
:10051000F8949EBF0FBE8DBF47C0603A26E87207B1
:1005200021E08207910508F03FC09F938F937F934E
:100530006F9383E291E09F938F93DF934F930E9499
:100540002D038C81282F082E000C330B3F938F93A3
:100550008B81282F082E000C330B3F938F938A81B9
:10056000282F082E000C330B3F938F938981282F5F
:10057000082E000C330B3F938F938881282F082E71
:10058000000C330B3F938F9387E291E09F938F93FF
:10059000DF93CF930E942D038DB79EB746960FB67B
:1005A000F8949EBF0FBE8DBFCE01DF91CF9108950D
:1005B0000E94870180E090E00895052E97FB1EF4CD
:1005C00000940E94F40257FD07D00E940B0307FC21
:1005D00003D04EF40C94F40250954095309521953B
:1005E0003F4F4F4F5F4F089590958095709561955F
:1005F0007F4F8F4F9F4F0895A29FB001B39FC001BF
:10060000A39F700D811D1124911DB29F700D811D3E
:100610001124911D0895A1E21A2EAA1BBB1BFD01F6
:100620000DC0AA1FBB1FEE1FFF1FA217B307E407D1
:10063000F50720F0A21BB30BE40BF50B661F771F29
:10064000881F991F1A9469F7609570958095909509
:100650009B01AC01BD01CF010895AEE0B0E0E3E342
:10066000F3E00C94EE050D891E8986E08C831A83D5
:1006700009838FEF9FE79E838D83AE01475E5F4FB7
:100680006F89788DCE0101960E944F03EF81F88526
:10069000E00FF11F10822E96E4E00C940A06ABE006
:1006A000B0E0E5E5F3E00C94E0056C017B018A0124
:1006B000FC0117821682838181FFCCC1CE01019695
:1006C0003C01F6019381F70193FD859193FF8191A0
:1006D0007F01882309F4BAC1853239F493FD8591ED
:1006E00093FF81917F01853229F4B60190E00E9449
:1006F0004605E7CF912C212C312CFFE1F315D8F0E2
:100700008B3279F038F4803279F08332A1F4232DE2
:1007100020611DC08D3261F0803369F4232D21608A
:1007200016C0832D8260382EE32DE4603E2E2AC051
:10073000F32DF8601DC037FC2DC020ED280F2A30A6
:1007400040F08E32B9F436FC81C1232D2064322E64
:1007500019C036FE06C08AE0989E200D1124922E04
:1007600011C0EAE02E9E200D1124222EF32DF062FE
:100770003F2E08C08C3621F4832D8068382E02C0AD
:10078000883641F4F70193FD859193FF81917F01B4
:100790008111B3CF982F9F7D9554933028F40C5F2F
:1007A0001F4F9FE399830DC0833631F0833771F07B
:1007B000833509F059C021C0F801808189830E5F1B
:1007C0001F4F88248394912C530113C02801F2E019
:1007D0004F0E511CF801A080B18036FE03C0692D78
:1007E00070E002C06FEF7FEFC5010E943B054C0136
:1007F0008201F32DFF773F2E16C0280122E0420E22
:10080000511CF801A080B18036FE03C0692D70E054
:1008100002C06FEF7FEFC5010E9430054C01F32D40
:10082000F0683F2E820133FC1BC0822D90E08816B9
:100830009906B0F4B60180E290E00E9446052A9441
:10084000F4CFF50137FC859137FE81915F01B60148
:1008500090E00E94460521102A9421E0821A910816
:100860008114910471F7E8C0843611F0893641F59E
:10087000F80137FE07C060817181828193810C5F2E
:100880001F4F08C060817181072E000C880B990BE7
:100890000E5F1F4FF32DFF763F2E97FF09C09095F7
:1008A0008095709561957F4F8F4F9F4FF0683F2ED9
:1008B0002AE030E0A3010E948205882E861845C0F8
:1008C000853731F4232D2F7EB22E2AE030E025C06B
:1008D000932D997FB92E8F36C1F018F4883579F0B1
:1008E000B5C0803719F0883721F0B0C0E92FE0613A
:1008F000BE2EB4FE0DC0FB2DF460BF2E09C034FE29
:100900000AC0292F2660B22E06C028E030E005C0BC
:1009100020E130E002C020E132E0F801B7FE07C07C
:1009200060817181828193810C5F1F4F06C060815D
:10093000718180E090E00E5F1F4FA3010E9482054D
:10094000882E8618FB2DFF773F2E36FE0DC0232DF7
:100950002E7FA22E891458F434FE0BC032FC09C03D
:10096000832D8E7EA82E05C0B82CA32C03C0B82CD6
:1009700001C0B92CA4FE0FC0FE01E80DF11D80815D
:10098000803321F49A2D997EA92E09C0A2FE06C0BB
:10099000B394B39404C08A2D867809F0B394A3FC71
:1009A00011C0A0FE06C0B21488F4280C922C9B182B
:1009B0000EC0B21460F4B60180E290E00E944605D9
:1009C000B394F7CFB21418F42B1802C0982C212C32
:1009D000A4FE10C0B60180E390E00E944605A2FE8E
:1009E00017C0A1FC03C088E790E002C088E590E052
:1009F000B6010CC08A2D867859F0A1FE02C08BE2A8
:100A000001C080E2A7FC8DE2B60190E00E9446059D
:100A1000891438F4B60180E390E00E9446059A9468
:100A2000F7CF8A94F301E80DF11D8081B60190E0C3
:100A30000E9446058110F5CF222009F442CEB6016E
:100A400080E290E00E9446052A94F6CFF601868166
:100A5000978102C08FEF9FEF2B96E2E10C94FC058B
:100A6000FC010590615070400110D8F78095909579
:100A70008E0F9F1F0895FC0161507040019001107E
:100A8000D8F7809590958E0F9F1F08950F931F9311
:100A9000CF93DF93FB01238121FD03C08FEF9FEFF5
:100AA0002CC022FF16C04681578124813581421710
:100AB000530744F4A081B1819D012F5F3F4F3183E3
:100AC00020838C93268137812F5F3F4F3783268386
:100AD00014C08B01EC01FB010084F185E02D099528
:100AE000892BE1F6D80116968D919C911797019666
:100AF00017969C938E931697CE01DF91CF911F91FD
:100B00000F910895FA01AA27283051F1203181F17F
:100B1000E8946F936E7F6E5F7F4F8F4F9F4FAF4F05
:100B2000B1E03ED0B4E03CD0670F781F891F9A1F18
:100B3000A11D680F791F8A1F911DA11D6A0F711DCC
:100B4000811D911DA11D20D009F468943F912AE0D8
:100B5000269F11243019305D3193DEF6CF010895C0
:100B6000462F4770405D4193B3E00FD0C9F7F6CFF1
:100B7000462F4F70405D4A3318F0495D31FD4052B9
:100B8000419302D0A9F7EACFB4E0A695979587954F
:100B900077956795BA95C9F700976105710508952E
:100BA0009B01AC010A2E06945795479537952795DA
:100BB000BA95C9F7620F731F841F951FA01D089572
:100BC0002F923F924F925F926F927F928F929F925D
:100BD000AF92BF92CF92DF92EF92FF920F931F934B
:100BE000CF93DF93CDB7DEB7CA1BDB0B0FB6F894FC
:100BF000DEBF0FBECDBF09942A88398848885F843C
:100C00006E847D848C849B84AA84B984C884DF80AC
:100C1000EE80FD800C811B81AA81B981CE0FD11D90
:100C20000FB6F894DEBF0FBECDBFED010895F89466
:020C3000FFCFF4
:100C320055205B565D3A0049205B415D3A004552C2
:100C42005200302E3030256C6400302E30256C641A
:100C520000302E256C6400256325632E25632563F1
:040C62002563000006
:00000001FF
