:100000000C942D010C944A010C944A010C944A0161
:100010000C944A010C944A010C944A010C944A0134
:100020000C944A010C944A010C944A010C944A0124
:100030000C944A010C944A010C944A010C944A0114
:100040000C944A010C944A010C944A010C944A0104
:100050000C944A010C944A010C944A010C944A01F4
:100060000C944A010C944A010000000000818118A0
:1000700081810007000700147F147F14242A7F2A3F
:10008000122313086462364955225000050300000C
:10009000001C2241000041221C0014083E081408E4
:1000A000083E0808005030000008080808080060F2
:1000B00060000020100804023E5149453E00427F86
:1000C000400042615149462141454B311814127F8D
:1000D0001027454545393C4A494930017109050316
:1000E0003649494936064949291E0036360000007E
:1000F0005636000008142241001414141414004150
:100100002214080201510906324979413E7E11113B
:10011000117E7F494949363E414141227F4141227A
:100120001C7F494949417F090909013E4149497AF2
:100130007F0808087F00417F41002040413F017F48
:10014000081422417F404040407F020C027F7F0420
:1001500008107F3E4141413E7F090909063E415159
:10016000215E7F09192946464949493101017F012C
:10017000013F4040403F1F2040201F3F4038403F4C
:100180006314081463070870080761514945430068
:100190007F41410002040810200041417F00040219
:1001A0000102044040404040000102040020545439
:1001B00054787F48444438384444442038444448C0
:1001C0007F3854545418087E0901020C5252523E92
:1001D0007F0804047800447D40002040443D007FB7
:1001E0001028440000417F40007C041804787C08FB
:1001F00004047838444444387C1414140808141453
:10020000147C7C080404084854545420043F44409F
:10021000203C4040207C1C2040201C3C4030403C86
:1002200044281028440C5050503C4464544C440022
:100230000836410000007F00000041360800100829
:1002400008100800000000000500960100C8110118
:100250000A3A05010036A000C82911241FBECFEFBD
:10026000D8E0DEBFCDBF11E0A0E0B1E0EAEAF4E102
:1002700002C005900D92A433B107D9F721E0A4E3A1
:10028000B1E001C01D92A933B207E1F70E94140743
:100290000C94530A0C940000CF93C82F84600E94E2
:1002A000630200C000C08C2F8B7F0E94630200C0DD
:1002B00000C0CF910895CF93C82F0E9463028C2F66
:1002C000CF910C944C011F93CF93DF93182FD62F0F
:1002D000D07FD42B80E16802B0011124C42FC62B3B
:1002E0000E943D02812F0E9447028D2F0E946302CF
:1002F0008D2F0E944C018C2F0E9463028C2F0E9434
:100300004C01DF91CF911F910C947B02089548E03E
:100310000E9463012FE788E391E0215080409040E4
:10032000E1F700C000000895CF93DF93C82F8FEF4F
:100330009CE70197F1F700C000000E9431020E9483
:100340003D0280913401882311F0D1E039C08C2F17
:100350000E944702D0913401D111F7CF80E30E946F
:100360005B018FE097E20197F1F700C0000080E3A6
:100370000E945B018BED90E00197F1F700C0000057
:1003800080E30E945B0195E89A95F1F7000080E216
:100390000E945B0185E88A95F1F700000E947B02CC
:1003A00068E28C2F0E94870168E08C2F0E948701F1
:1003B00061E08C2F0E94870166E08C2F0E948701EC
:1003C0008D2FDF91CF91089549E00C946301613145
:1003D0005CF443304CF4442319F0413039F4605C50
:1003E00060680E94870102C081E0089580E008955E
:1003F00061E00C9487016CE00C9487016EE00C9432
:1004000087016FE00C9487010C94E4011F93CF9354
:10041000DF93182FEB016991662321F0812F0E9451
:10042000E401F9CFDF91CF911F910895CF93C62FAB
:10043000C77F21F4443021F0442341F0C1E00EC0D5
:10044000611102C064E105C06CE103C0611104C028
:1004500060E10E94870102C068E1FBCF8C2FCF9141
:10046000089588E08093B800E9EBF0E08081908106
:1004700082708160892B8083089584EA8093BC0018
:100480008091BC0087FFFCCF8091B9000895880F50
:100490008093BB0084EC8093BC008091BC0087FFFC
:1004A000FCCF8091B9000895880F990B81608093EB
:1004B000BB0084EC8093BC008091BC0087FFFCCF24
:1004C0008091B90008958093BB0084EC8093BC00B8
:1004D0008091BC0087FFFCCF8091B900089584E82B
:1004E0008093BC008091BC0087FFFCCF8091B90055
:1004F0008091BB00089584E98093BC00089508951D
:100500005F9A579A2FEF81EE94E0215080409040FF
:10051000E1F700C000005F982FEF81EE94E02150DA
:1005200080409040E1F700C000005F9A089584B1D8
:100530008D6284B98CB580658CBD8DB581608DBDB3
:1005400008952A9828988EBD0DB407FEFDCF2A9AEB
:100550008EB508952A98289A8EBD0DB407FEFDCF5A
:100560002A9A8EB508952A98289A9EBD0DB407FE42
:10057000FDCF8EBD0DB407FEFDCF2A9A8EB508952E
:10058000CF93DF938238C0F46238B0F4C62FD82FEF
:1005900080E30E94A10280E00E94AA028D2F0E94A7
:1005A000AA0280E00E94AA028C2F0E94AA0282E185
:1005B0000E94A10281E001C080E0DF91CF91089507
:1005C0000F931F93CF93DF93681710F1613A00F5F3
:1005D0002417F0F02238E0F4C22F142FD62F082F62
:1005E0008AE20E94A102802F90E00E94B3028D2F28
:1005F00090E00E94B3028BE20E94A102812F90E062
:100600000E94B3028C2F90E00E94B30280E001C0F0
:1006100081E0DF91CF911F910F910895EF92FF92AA
:100620000F931F93CF93DF938C017B018CE20E9489
:10063000A102E701209729F0C8010E94B302219787
:10064000F9CFDF91CF911F910F91FF90EF90089517
:10065000CF93DF93EA01262F462F682F0E94E002F6
:1006600061E070E0CE01DF91CF910C940E03AF9268
:10067000BF92CF92DF92EF92FF920F931F93CF938F
:10068000DF93EB014115510589F535E0E32E082E86
:10069000000C990B8097E89E6001E99ED00C112414
:1006A000EA948FEFE81609F45BC0F601EE0DF11D38
:1006B000E859FF4FE49148E0F42E0E2F10E0FA9431
:1006C0008FEFF81669F3C8010F2C02C09595879536
:1006D0000A94E2F780FFF3CF609137016F0D8091AC
:1006E0003501AE018E0D0E942803E9CF4038510537
:1006F00009F03CC015E0082E000C990B8097189F5C
:100700006001199FD00C1124115050F1F601E10F36
:10071000F11DE859FF4FE49108E0EE2EF12C015055
:1007200098F3C701002E02C0959587950A94E2F7C9
:1007300080FFF5CF60913701B02EBB0C6B0D80911F
:100740003501AE01810F0E942803609137016B0DC6
:100750006F5F80913501AE01810F0E942803DFCFCA
:10076000809135019091360105965DC04138510563
:1007700009F05DC095E0F92E082E000C990B8097CA
:10078000F89E6001F99ED00C1124FA948FEFF816B0
:1007900009F444C0F601EF0DF11DE859FF4FE49153
:1007A000AF2CAA0C28E0B22E0E2F10E0BA948FEFD7
:1007B000B81659F3C8010B2C02C0959587950A9479
:1007C000E2F780FFF3CF60913701EB2CEE0C6E0D5A
:1007D00080913501AE018A0D0E9428036091370196
:1007E0006E0D6F5F80913501AE018A0D0E94280366
:1007F000609137016E0D809135018F5FAE018A0DDA
:100800000E942803609137016E0D6F5F8091350162
:100810008F5FAE018A0D0E942803C8CF80913501F9
:10082000909136010B96909336018093350180E0CC
:10083000DF91CF911F910F91FF90EF90DF90CF90BC
:10084000BF90AF900895823A50F06338A0F470E002
:10085000709338016093370182E090E006C070E049
:10086000709338016093370190E090933601809344
:10087000350180E0089581E00895823A68F04617D6
:1008800068F070E0709338016093370182E090E087
:10089000909336018093350180E0089581E00895BA
:1008A000BF92CF92DF92EF92FF920F931F93CF935D
:1008B000DF936B018A019A0144E0369527954A95AA
:1008C000E1F7C8E0C20FD2E8DC1B7C01802F8F70FB
:1008D000B82EF70180818823A9F0609137016C0F51
:1008E000809135018B5F98014D2F8B0D0E943D0447
:1008F0008111EFCFA801B601F70181917F010E941C
:100900003703E7CFDF91CF911F910F91FF90EF90C9
:10091000DF90CF90BF9008956F927F928F929F92B9
:10092000AF92BF92CF92DF92EF92FF920F931F93FD
:10093000CF93DF93E82E862EF42E922E262F30E0D2
:10094000281B3109892D90E0841B910937FF06C0CF
:1009500031952195310977247A9402C077247394D4
:1009600097FF06C091958195910966246A9402C00B
:10097000662463946C01CC0CDD1C5901AA0CBB1CD1
:10098000821793079CF4E601C21BD30BA8016F2DBD
:100990008E2D0E942803E814D9F0E70CD7FD03C080
:1009A000F60CCA19DB09CC0DDD1DF0CFEC01CA191C
:1009B000DB09A8016F2D8E2D0E942803F91441F048
:1009C000F60C1C161D069CF3E70CCC0DDD1DEFCFBD
:1009D00081E0DF91CF911F910F91FF90EF90DF9019
:1009E000CF90BF90AF909F908F907F906F90089521
:1009F0000F931F93CF93DF93D82F8901C82F8617AA
:100A000008F4C62F242F6C2F8D2F0E94E0026C2F2C
:100A100070E06D1B7109C801DF91CF911F910F919B
:100A20000C940E030F931F93CF93DF93D62F89015E
:100A3000C62F641708F4C42F2C2F4D2F682F0E9447
:100A4000E0026C2F70E06D1B7109C801DF91CF913E
:100A50001F910F910C940E03EF92FF920F931F932F
:100A6000CF93DF93E82ED62FF42EC22F681710F401
:100A7000E62ED82FCF1518F48F2DFC2EC82F2C2F33
:100A80004F2D6D2F8E2D0E94E0028D2F90E08E193C
:100A9000910901962C2F30E02F1931092F5F3F4F1C
:100AA000829FB001839F700D929F700D1124C80129
:100AB000DF91CF911F910F91FF90EF900C940E0357
:100AC000CF93DF93EC0121E840E060EA80E00E94F0
:100AD000E00262EC71E5CE01DF91CF910C940E0340
:100AE00089E20C94A102882341F0EFECF7E0319702
:100AF000F1F700C000008150F6CF0895BF92CF9269
:100B0000DF92EF92FF920F931F93CF93DF93EC014D
:100B10002196FC011491112311F1FE01B49031963C
:100B200004917E01F3E0EF0EF11CFE0132968491F8
:100B30000E94A102CB2D6701CC2349F0F6018491DC
:100B40000E94AA02C150C60101966C01F5CFE701CF
:100B5000CB0DD11D802F0E9473051150DCCFDF918A
:100B6000CF911F910F91FF90EF90DF90CF90BF90AA
:100B70000895219A299A0E9497020E94800288E48F
:100B800092E00C947E050E940C0687E20E9494017C
:100B900087E20E94F80187E20E94FB0160E071E0B9
:100BA00087E20E94060241E060E087E20E94E701DE
:100BB00067E071E087E20E94060281E090E00E9417
:100BC0002006C12CD12C7601CA9481E090E00E94CD
:100BD0002006EC0140E067E087E20E94E7019E0109
:100BE000A8E8B3E10E943807A70196010E941907FF
:100BF000CA01B9014EE051E00E943806BC0187E20B
:100C00000E9406022FEF84E39CE021508040904038
:100C1000E1F700C00000D9CFECE7F0E0808180640C
:100C20008083808180628083EAE7F0E08081886849
:100C300080838081887F808380818660808308951F
:100C400090917C00987F90937C0090917C008770BD
:100C5000982B90937C0080917A00806480937A0036
:100C600080917A0084FDFCCF8091790090E0089516
:100C7000CF93DF93EA016A30710581059105A8F4ED
:100C80009F938F937F936F9382E191E09F938F93D4
:100C9000DF934F930E9469078DB79EB708960FB6F2
:100CA000F8949EBF0FBE8DBFBBC064367105810531
:100CB0009105A8F49F938F937F936F938AE191E0BE
:100CC0009F938F93DF934F930E9469078DB79EB7D1
:100CD00008960FB6F8949EBF0FBE8DBFA1C0683EA8
:100CE00023E0720781059105A8F49F938F937F936A
:100CF0006F9381E291E09F938F93DF934F930E94D4
:100D000069078DB79EB708960FB6F8949EBF0FBEC1
:100D10008DBF86C0603127E2720781059105C8F555
:100D20009F938F937F936F9383E291E09F938F9331
:100D3000DF934F930E9469078B81282F082E000CA8
:100D4000330B3F938F938A81282F082E000C330B8F
:100D50003F938F938981282F082E000C330B3F93EC
:100D60008F938881282F082E000C330B3F938F938D
:100D700089E291E09F938F93DF93CF930E9469075D
:100D80008DB79EB744960FB6F8949EBF0FBE8DBF29
:100D900047C0603A26E8720721E08207910508F013
:100DA0003FC09F938F937F936F9383E291E09F93D4
:100DB0008F93DF934F930E9469078C81282F082E11
:100DC000000C330B3F938F938B81282F082E000C40
:100DD000330B3F938F938A81282F082E000C330BFF
:100DE0003F938F938981282F082E000C330B3F935C
:100DF0008F938881282F082E000C330B3F938F93FD
:100E000087E291E09F938F93DF93CF930E946907CE
:100E10008DB79EB746960FB6F8949EBF0FBE8DBF96
:100E2000CE01DF91CF9108950E94C30580E090E04C
:100E30000895052E97FB1EF400940E94300757FD7D
:100E400007D00E94470707FC03D04EF40C943007EC
:100E500050954095309521953F4F4F4F5F4F0895E6
:100E600090958095709561957F4F8F4F9F4F089516
:100E7000A29FB001B39FC001A39F700D811D1124DB
:100E8000911DB29F700D811D1124911D0895A1E245
:100E90001A2EAA1BBB1BFD010DC0AA1FBB1FEE1FF4
:100EA000FF1FA217B307E407F50720F0A21BB30B3F
:100EB000E40BF50B661F771F881F991F1A9469F7BB
:100EC00060957095809590959B01AC01BD01CF0117
:100ED0000895AEE0B0E0EFE6F7E00C942A0A0D8941
:100EE0001E8986E08C831A8309838FEF9FE79E8398
:100EF0008D83AE01475E5F4F6F89788DCE0101967D
:100F00000E948B07EF81F885E00FF11F10822E966B
:100F1000E4E00C94460AABE0B0E0E1E9F7E00C94C1
:100F20001C0A6C017B018A01FC01178216828381F5
:100F300081FFCCC1CE0101963C01F6019381F701FE
:100F400093FD859193FF81917F01882309F4BAC1B4
:100F5000853239F493FD859193FF81917F0185322C
:100F600029F4B60190E00E948209E7CF912C212C50
:100F7000312CFFE1F315D8F08B3279F038F4803260
:100F800079F08332A1F4232D20611DC08D3261F0F0
:100F9000803369F4232D216016C0832D8260382EA2
:100FA000E32DE4603E2E2AC0F32DF8601DC037FC0F
:100FB0002DC020ED280F2A3040F08E32B9F436FCD7
:100FC00081C1232D2064322E19C036FE06C08AE06E
:100FD000989E200D1124922E11C0EAE02E9E200D25
:100FE0001124222EF32DF0623F2E08C08C3621F4FE
:100FF000832D8068382E02C0883641F4F70193FDB6
:10100000859193FF81917F018111B3CF982F9F7DAF
:101010009554933028F40C5F1F4F9FE399830DC0C4
:10102000833631F0833771F0833509F059C021C020
:10103000F801808189830E5F1F4F88248394912C4F
:10104000530113C02801F2E04F0E511CF801A0809B
:10105000B18036FE03C0692D70E002C06FEF7FEFF4
:10106000C5010E9477094C018201F32DFF773F2EC5
:1010700016C0280122E0420E511CF801A080B18068
:1010800036FE03C0692D70E002C06FEF7FEFC5012F
:101090000E946C094C01F32DF0683F2E820133FC55
:1010A0001BC0822D90E088169906B0F4B60180E24C
:1010B00090E00E9482092A94F4CFF50137FC8591D3
:1010C00037FE81915F01B60190E00E9482092110F4
:1010D0002A9421E0821A91088114910471F7E8C0E2
:1010E000843611F0893641F5F80137FE07C060817A
:1010F0007181828193810C5F1F4F08C06081718173
:10110000072E000C880B990B0E5F1F4FF32DFF76F7
:101110003F2E97FF09C090958095709561957F4F00
:101120008F4F9F4FF0683F2E2AE030E0A3010E94CE
:10113000BE09882E861845C0853731F4232D2F7EB1
:10114000B22E2AE030E025C0932D997FB92E8F363C
:10115000C1F018F4883579F0B5C0803719F08837B8
:1011600021F0B0C0E92FE061BE2EB4FE0DC0FB2D12
:10117000F460BF2E09C034FE0AC0292F2660B22EAB
:1011800006C028E030E005C020E130E002C020E1E8
:1011900032E0F801B7FE07C06081718182819381DE
:1011A0000C5F1F4F06C06081718180E090E00E5F90
:1011B0001F4FA3010E94BE09882E8618FB2DFF77C2
:1011C0003F2E36FE0DC0232D2E7FA22E891458F4FB
:1011D00034FE0BC032FC09C0832D8E7EA82E05C0C4
:1011E000B82CA32C03C0B82C01C0B92CA4FE0FC08E
:1011F000FE01E80DF11D8081803321F49A2D997E46
:10120000A92E09C0A2FE06C0B394B39404C08A2DCF
:10121000867809F0B394A3FC11C0A0FE06C0B214F6
:1012200088F4280C922C9B180EC0B21460F4B601FE
:1012300080E290E00E948209B394F7CFB21418F4D0
:101240002B1802C0982C212CA4FE10C0B60180E3FC
:1012500090E00E948209A2FE17C0A1FC03C088E7AB
:1012600090E002C088E590E0B6010CC08A2D867837
:1012700059F0A1FE02C08BE201C080E2A7FC8DE222
:10128000B60190E00E948209891438F4B60180E327
:1012900090E00E9482099A94F7CF8A94F301E80DB6
:1012A000F11D8081B60190E00E9482098110F5CF86
:1012B000222009F442CEB60180E290E00E94820929
:1012C0002A94F6CFF6018681978102C08FEF9FEFB7
:1012D0002B96E2E10C94380AFC01059061507040B5
:1012E0000110D8F7809590958E0F9F1F0895FC01EF
:1012F0006150704001900110D8F7809590958E0F45
:101300009F1F08950F931F93CF93DF93FB012381BA
:1013100021FD03C08FEF9FEF2CC022FF16C0468136
:101320005781248135814217530744F4A081B1814C
:101330009D012F5F3F4F318320838C93268137811E
:101340002F5F3F4F3783268314C08B01EC01FB01D5
:101350000084F185E02D0995892BE1F6D8011696D8
:101360008D919C911797019617969C938E93169743
:10137000CE01DF91CF911F910F910895FA01AA2715
:10138000283051F1203181F1E8946F936E7F6E5FC8
:101390007F4F8F4F9F4FAF4FB1E03ED0B4E03CD076
:1013A000670F781F891F9A1FA11D680F791F8A1F59
:1013B000911DA11D6A0F711D811D911DA11D20D0C0
:1013C00009F468943F912AE0269F11243019305D7A
:1013D0003193DEF6CF010895462F4770405D41936B
:1013E000B3E00FD0C9F7F6CF462F4F70405D4A33B8
:1013F00018F0495D31FD4052419302D0A9F7EACF80
:10140000B4E0A6959795879577956795BA95C9F7AE
:1014100000976105710508959B01AC010A2E0694A1
:101420005795479537952795BA95C9F7620F731F5A
:10143000841F951FA01D08952F923F924F925F9297
:101440006F927F928F929F92AF92BF92CF92DF92D4
:10145000EF92FF920F931F93CF93DF93CDB7DEB739
:10146000CA1BDB0B0FB6F894DEBF0FBECDBF0994CD
:101470002A88398848885F846E847D848C849B8424
:10148000AA84B984C884DF80EE80FD800C811B8132
:10149000AA81B981CE0FD11D0FB6F894DEBF0FBE61
:0A14A000CDBFED010895F894FFCFD1
:1014AA0055205B565D3A0049205B415D3A00455242
:1014BA005200302E3030256C6400302E30256C649A
:1014CA0000302E256C6400256325632E2563256371
:0414DA002563000086
:00000001FF
