:100000000C9434000C9446000C9446000C9446006A
:100010000C9446000C9446000C9446000C94460048
:100020000C9446000C9446000C9446000C94460038
:100030000C9446000C9446000C9446000C94460028
:100040000C9446000C9446000C9446000C94460018
:100050000C9446000C9446000C9446000C94460008
:100060000C9446000C94460011241FBECFEFD8E03C
:10007000DEBFCDBF21E0A0E0B1E001C01D92A13004
:10008000B207E1F70E94F3000C9409010C94000000
:1000900008958FEF9CE70197F1F700C000000E94E0
:1000A000A4000E94B00081E00895CF93C82FC07FC4
:1000B0008C2F84600E94D60000C000C08C2F0E944C
:1000C000D60000C000C0CF9108951F93CF93DF9357
:1000D000182FC62FD62FD07F0E94B000812F0E94EC
:1000E000BA008D2F84600E94D60000C000C08D2F02
:1000F0000E94D60000C000C08C2F859585958595FF
:10010000859584600E94D60000C000C08D2F0E949B
:10011000D60000C000C0DF91CF911F910895CF930A
:10012000C82F82E00E94D6000E94B0008C2F0E944F
:10013000C7000E94E200C82F0E94E200C7FDF9CF6D
:10014000CF9108950895089588E08093B800E9EB71
:10015000F0E08081908182708160892B8083089596
:1001600084EA8093BC008091BC0087FFFCCF809123
:10017000B9000895880F8093BB0084EC8093BC0085
:100180008091BC0087FFFCCF8091B9000895880F53
:10019000990B81608093BB0084EC8093BC008091BC
:1001A000BC0087FFFCCF8091B90008958093BB000D
:1001B00084EC8093BC008091BC0087FFFCCF8091D1
:1001C000B900089584E88093BC008091BC0087FF4B
:1001D000FCCF8091B9008091BB00089584E98093A1
:1001E000BC00089508951F93CF93DF9347E2C0E0CA
:1001F0006C2F10E0712FD0E08D2F0E944800E12F6E
:10020000FD2F8C2F099580E090E0DF91CF911F9119
:060210000895F894FFCFF1
:00000001FF
