:100000000C942D010C944A010C944A010C944A0161
:100010000C944A010C944A010C944A010C944A0134
:100020000C944A010C944A010C944A010C944A0124
:100030000C944A010C944A010C944A010C944A0114
:100040000C944A010C944A010C944A010C944A0104
:100050000C944A010C944A010C944A010C944A01F4
:100060000C944A010C944A010000000000818118A0
:1000700081810007000700147F147F14242A7F2A3F
:10008000122313086462364955225000050300000C
:10009000001C2241000041221C0014083E081408E4
:1000A000083E0808005030000008080808080060F2
:1000B00060000020100804023E5149453E00427F86
:1000C000400042615149462141454B311814127F8D
:1000D0001027454545393C4A494930017109050316
:1000E0003649494936064949291E0036360000007E
:1000F0005636000008142241001414141414004150
:100100002214080201510906324979413E7E11113B
:10011000117E7F494949363E414141227F4141227A
:100120001C7F494949417F090909013E4149497AF2
:100130007F0808087F00417F41002040413F017F48
:10014000081422417F404040407F020C027F7F0420
:1001500008107F3E4141413E7F090909063E415159
:10016000215E7F09192946464949493101017F012C
:10017000013F4040403F1F2040201F3F4038403F4C
:100180006314081463070870080761514945430068
:100190007F41410002040810200041417F00040219
:1001A0000102044040404040000102040020545439
:1001B00054787F48444438384444442038444448C0
:1001C0007F3854545418087E0901020C5252523E92
:1001D0007F0804047800447D40002040443D007FB7
:1001E0001028440000417F40007C041804787C08FB
:1001F00004047838444444387C1414140808141453
:10020000147C7C080404084854545420043F44409F
:10021000203C4040207C1C2040201C3C4030403C86
:1002200044281028440C5050503C4464544C440022
:100230000836410000007F00000041360800100829
:1002400008100800000000000500960100C8110118
:100250000A3A05010036A000C82911241FBECFEFBD
:10026000D8E0DEBFCDBF11E0A0E0B1E0ECE2F3E109
:1002700002C005900D92A632B107D9F721E0A6E29F
:10028000B1E001C01D92AB32B207E1F70E949C06BB
:100290000C9494090C940000CF93C82F84600E94A2
:1002A000350300C000C08C2F8B7F0E94350300C037
:1002B00000C0CF9108950F931F93CF93DF93CDB7D5
:1002C000DEB72A970FB6F894DEBF0FBECDBF182F4A
:1002D0000E943503812F0E944C011B7F812F012E2C
:1002E000000C990B9F931F9380E191E09F938F9354
:1002F0008E010F5F1F4F1F930F930E94AA0640E0CD
:1003000050E060E070E0C8010E9429050F900F9056
:100310000F900F900F900F902A960FB6F894DEBFB3
:100320000FBECDBFDF91CF911F910F910895EF9236
:10033000FF920F931F93CF93DF93CDB7DEB72A972A
:100340000FB6F894DEBF0FBECDBFF82E062F007F8C
:10035000042B80E16802B0011124142F162B0E9497
:10036000FB028F2D0E940D03802F0E943503802FEA
:100370000E944C010B7F802F002E000C990B9F9345
:100380000F9386E191E09F938F93CE0101967C01BC
:100390009F938F930E94AA0640E050E060E070E0D7
:1003A000C7010E942905812F0E943503812F0E94D9
:1003B0004C01612F6B7F862F062E000C990B9F93AB
:1003C0006F9380E191E09F938F93FF92EF920E9451
:1003D000AA0640E050E060E070E0C7010E942905F5
:1003E0000E94B5020FB6F894DEBF0FBECDBF2A96AD
:1003F0000FB6F894DEBF0FBECDBFDF91CF911F9136
:100400000F91FF90EF900895089548E00E949701A2
:100410002FE788E391E0215080409040E1F700C051
:1004200000000895CF93DF93C82F8FEF9CE70197CB
:10043000F1F700C000000E949F020E94FB02809121
:100440002601882311F0D1E039C08C2F0E940D03C2
:10045000D0912601D111F7CF80E30E945B018FE09C
:1004600097E20197F1F700C0000080E30E945B0172
:100470008BED90E00197F1F700C0000080E30E944F
:100480005B0195E89A95F1F7000080E20E945B011C
:1004900085E88A95F1F700000E94B50268E28C2F8A
:1004A0000E94050268E08C2F0E94050261E08C2FFB
:1004B0000E94050266E08C2F0E9405028D2FDF91BD
:1004C000CF91089549E00E9497012FE788E391E0DA
:1004D000215080409040E1F700C000000895613154
:1004E0005CF443304CF4442319F0413039F4605C3F
:1004F00060680E94050202C081E0089580E00895CE
:1005000061E00C9405026CE00C9405026EE00C9422
:1005100005026FE00C9405020C9462021F93CF93C6
:10052000DF93182FEB016991662321F0812F0E9440
:100530006202F9CFDF91CF911F91089508950E9433
:1005400092068FEF9FEF0E9439066AE085E00E94D5
:10055000FC0488E08093B800E9EBF0E080819081B2
:1005600082708160892B8083089584E98093BC0028
:1005700008950F931F93CF93DF93CDB7DEB72A97DC
:100580000FB6F894DEBF0FBECDBF182F062F64E163
:1005900085E00E94FC04802F002E000C990B9F9395
:1005A0000F93812F012E000C990B9F931F938CE1C9
:1005B00091E09F938F938E010F5F1F4F1F930F93B7
:1005C0000E94AA0640E050E060E070E0C8010E948E
:1005D00029050E9449060FB6F894DEBF0FBECDBFB5
:1005E0002A960FB6F894DEBF0FBECDBFDF91CF9134
:1005F0001F910F91089584EA8093BC008091BC0004
:1006000087FFFCCF8091B900887F883029F0803146
:1006100019F068E00C94B9020895880F8093BB002C
:1006200084EC8093BC008091BC0087FFFCCF80915C
:10063000B900887F883119F068E10C94B9020895F7
:10064000880F990B81608093BB0084EC8093BC0081
:100650008091BC0087FFFCCF8091B900887F8034F7
:1006600019F060E40C94B90208958093BB0084EC07
:100670008093BC008091BC0087FFFCCF8091B900C3
:10068000887F883219F068E20C94B902089584E8F2
:100690008093BC008091BC0087FFFCCF8091B900A3
:1006A000887F883519F068E50E94B9028091BB0007
:1006B00008955F9A579A2FEF81EE94E02150804081
:1006C0009040E1F700C000005F982FEF81EE94E0CA
:1006D000215080409040E1F700C000005F9A0895EB
:1006E00084B18D6284B98CB580658CBD8DB5816017
:1006F0008DBD08952A9828988EBD0DB407FEFDCFB4
:100700002A9A8EB508952A98289A8EBD0DB407FEB0
:10071000FDCF2A9A8EB508952A98289A9EBD0DB4C9
:1007200007FEFDCF8EBD0DB407FEFDCF2A9A8EB514
:100730000895CF93DF938238C0F46238B0F4C62FA7
:10074000D82F80E30E947A0380E00E9483038D2FDC
:100750000E94830380E00E9483038C2F0E94830306
:1007600082E10E947A0381E001C080E0DF91CF91B5
:1007700008950F931F93CF93DF93681710F1613A99
:1007800000F52417F0F02238E0F4C22F142FD62FF2
:10079000082F8AE20E947A03802F90E00E948C0347
:1007A0008D2F90E00E948C038BE20E947A03812FB0
:1007B00090E00E948C038C2F90E00E948C0380E0DC
:1007C00001C081E0DF91CF911F910F910895EF92C9
:1007D000FF920F931F93CF93DF938C017B018CE2E9
:1007E0000E947A03E701209729F0C8010E948C0338
:1007F0002197F9CFDF91CF911F910F91FF90EF904B
:100800000895CF93DF93EA01262F462F682F0E9489
:10081000B90361E070E0CE01DF91CF910C94E70362
:10082000AF92BF92CF92DF92EF92FF920F931F93FE
:10083000CF93DF93EB014115510589F535E0E32EA8
:10084000082E000C990B8097E89E6001E99ED00C61
:100850001124EA948FEFE81609F45BC0F601EE0D5F
:10086000F11DE859FF4FE49148E0F42E0E2F10E0FF
:10087000FA948FEFF81669F3C8010F2C02C0959512
:1008800087950A94E2F780FFF3CF609129016F0DFD
:1008900080912701AE018E0D0E940104E9CF4038FE
:1008A000510509F03CC015E0082E000C990B80970B
:1008B000189F6001199FD00C1124115050F1F601BE
:1008C000E10FF11DE859FF4FE49108E0EE2EF12C05
:1008D000015098F3C701002E02C0959587950A94A0
:1008E000E2F780FFF5CF60912901B02EBB0C6B0DB4
:1008F00080912701AE01810F0E94010460912901BE
:100900006B0D6F5F80912701AE01810F0E94010482
:10091000DFCF809127019091280105965DC0413875
:10092000510509F05DC095E0F92E082E000C990BD9
:100930008097F89E6001F99ED00C1124FA948FEFF5
:10094000F81609F444C0F601EF0DF11DE859FF4F08
:10095000E491AF2CAA0C28E0B22E0E2F10E0BA942E
:100960008FEFB81659F3C8010B2C02C095958795E7
:100970000A94E2F780FFF3CF60912901EB2CEE0C93
:100980006E0D80912701AE018A0D0E9401046091D5
:1009900029016E0D6F5F80912701AE018A0D0E94C3
:1009A0000104609129016E0D809127018F5FAE01D6
:1009B0008A0D0E940104609129016E0D6F5F809184
:1009C00027018F5FAE018A0D0E940104C8CF80917C
:1009D0002701909128010B9690932801809327017D
:1009E00080E0DF91CF911F910F91FF90EF90DF900A
:1009F000CF90BF90AF900895823A50F06338A0F442
:100A000070E070932A016093290182E090E006C0B3
:100A100070E070932A016093290190E0909328017F
:100A20008093270180E0089581E00895823A68F07C
:100A3000461768F070E070932A016093290182E004
:100A400090E0909328018093270180E0089581E051
:100A50000895BF92CF92DF92EF92FF920F931F9370
:100A6000CF93DF936B018A019A0144E03695279575
:100A70004A95E1F7C8E0C20FD2E8DC1B7C01802F69
:100A80008F70B82EF70180818823A9F06091290129
:100A90006C0F809127018B5F98014D2F8B0D0E9469
:100AA00016058111EFCFA801B601F70181917F01F1
:100AB0000E941004E7CFDF91CF911F910F91FF901B
:100AC000EF90DF90CF90BF9008956F927F928F92BA
:100AD0009F92AF92BF92CF92DF92EF92FF920F93CD
:100AE0001F93CF93DF93E82E862EF42E922E262F7F
:100AF00030E0281B3109892D90E0841B910937FFD4
:100B000006C031952195310977247A9402C0772463
:100B1000739497FF06C091958195910966246A9414
:100B200002C0662463946C01CC0CDD1C5901AA0C34
:100B3000BB1C821793079CF4E601C21BD30BA801D0
:100B40006F2D8E2D0E940104E814D9F0E70CD7FD1B
:100B500003C0F60CCA19DB09CC0DDD1DF0CFEC018A
:100B6000CA19DB09A8016F2D8E2D0E940104F9140A
:100B700041F0F60C1C161D069CF3E70CCC0DDD1D98
:100B8000EFCF81E0DF91CF911F910F91FF90EF9018
:100B9000DF90CF90BF90AF909F908F907F906F909D
:100BA00008950F931F93CF93DF93D82F8901C82FF8
:100BB000861708F4C62F242F6C2F8D2F0E94B9039F
:100BC0006C2F70E06D1B7109C801DF91CF911F91EF
:100BD0000F910C94E7030F931F93CF93DF93D62FBE
:100BE0008901C62F641708F4C42F2C2F4D2F682FAE
:100BF0000E94B9036C2F70E06D1B7109C801DF9171
:100C0000CF911F910F910C94E703EF92FF920F93F6
:100C10001F93CF93DF93E82ED62FF42EC22F6817A1
:100C200010F4E62ED82FCF1518F48F2DFC2EC82FD8
:100C30002C2F4F2D6D2F8E2D0E94B9038D2F90E0FC
:100C40008E19910901962C2F30E02F1931092F5F51
:100C50003F4F829FB001839F700D929F700D1124B2
:100C6000C801DF91CF911F910F91FF90EF900C94ED
:100C7000E703CF93DF93EC0121E840E060EA80E0F6
:100C80000E94B90362EC71E5CE01DF91CF910C9423
:100C9000E70389E20C947A03882341F0EFECF7E054
:100CA0003197F1F700C000008150F6CF0895BF9250
:100CB000CF92DF92EF92FF920F931F93CF93DF9328
:100CC000EC012196FC011491112311F1FE01B49065
:100CD000319604917E01F3E0EF0EF11CFE01329695
:100CE00084910E947A03CB2D6701CC2349F0F60151
:100CF00084910E948303C150C60101966C01F5CF17
:100D0000E701CB0DD11D802F0E944C061150DCCF86
:100D1000DF91CF911F910F91FF90EF90DF90CF90D7
:100D2000BF900895219A299A0E9470030E94590346
:100D300088E492E00C94570687E20E94120287E250
:100D40000E94890260E071E087E20E948E0280E0EA
:100D500090E00895AEE0B0E0E0EBF6E00C946B09B3
:100D60000D891E8986E08C831A8309838FEF9FE7A4
:100D70009E838D83AE01475E5F4F6F89788DCE0174
:100D800001960E94CC06EF81F885E00FF11F1082DA
:100D90002E96E4E00C948709ABE0B0E0E2EDF6E0DB
:100DA0000C945D096C017B018A01FC01178216829B
:100DB000838181FFCCC1CE0101963C01F601938174
:100DC000F70193FD859193FF81917F01882309F4B9
:100DD000BAC1853239F493FD859193FF81917F01EA
:100DE000853229F4B60190E00E94C308E7CF912C28
:100DF000212C312CFFE1F315D8F08B3279F038F447
:100E0000803279F08332A1F4232D20611DC08D3210
:100E100061F0803369F4232D216016C0832D826038
:100E2000382EE32DE4603E2E2AC0F32DF8601DC05D
:100E300037FC2DC020ED280F2A3040F08E32B9F457
:100E400036FC81C1232D2064322E19C036FE06C027
:100E50008AE0989E200D1124922E11C0EAE02E9E69
:100E6000200D1124222EF32DF0623F2E08C08C3667
:100E700021F4832D8068382E02C0883641F4F701B2
:100E800093FD859193FF81917F018111B3CF982FBD
:100E90009F7D9554933028F40C5F1F4F9FE39983F7
:100EA0000DC0833631F0833771F0833509F059C0B6
:100EB00021C0F801808189830E5F1F4F88248394AD
:100EC000912C530113C02801F2E04F0E511CF80180
:100ED000A080B18036FE03C0692D70E002C06FEFC4
:100EE0007FEFC5010E94B8084C018201F32DFF7706
:100EF0003F2E16C0280122E0420E511CF801A080AE
:100F0000B18036FE03C0692D70E002C06FEF7FEF45
:100F1000C5010E94AD084C01F32DF0683F2E8201FF
:100F200033FC1BC0822D90E088169906B0F4B60100
:100F300080E290E00E94C3082A94F4CFF50137FCC8
:100F4000859137FE81915F01B60190E00E94C30850
:100F500021102A9421E0821A91088114910471F7DA
:100F6000E8C0843611F0893641F5F80137FE07C034
:100F700060817181828193810C5F1F4F08C0608105
:100F80007181072E000C880B990B0E5F1F4FF32DFC
:100F9000FF763F2E97FF09C09095809570956195DB
:100FA0007F4F8F4F9F4FF0683F2E2AE030E0A30124
:100FB0000E94FF08882E861845C0853731F4232DFE
:100FC0002F7EB22E2AE030E025C0932D997FB92ED6
:100FD0008F36C1F018F4883579F0B5C0803719F034
:100FE000883721F0B0C0E92FE061BE2EB4FE0DC0FD
:100FF000FB2DF460BF2E09C034FE0AC0292F2660E5
:10100000B22E06C028E030E005C020E130E002C08A
:1010100020E132E0F801B7FE07C060817181828172
:1010200093810C5F1F4F06C06081718180E090E06A
:101030000E5F1F4FA3010E94FF08882E8618FB2D0C
:10104000FF773F2E36FE0DC0232D2E7FA22E891452
:1010500058F434FE0BC032FC09C0832D8E7EA82EBE
:1010600005C0B82CA32C03C0B82C01C0B92CA4FE19
:101070000FC0FE01E80DF11D8081803321F49A2D0F
:10108000997EA92E09C0A2FE06C0B394B39404C0F1
:101090008A2D867809F0B394A3FC11C0A0FE06C087
:1010A000B21488F4280C922C9B180EC0B21460F471
:1010B000B60180E290E00E94C308B394F7CFB21467
:1010C00018F42B1802C0982C212CA4FE10C0B601D5
:1010D00080E390E00E94C308A2FE17C0A1FC03C0F9
:1010E00088E790E002C088E590E0B6010CC08A2D48
:1010F000867859F0A1FE02C08BE201C080E2A7FC15
:101100008DE2B60190E00E94C308891438F4B6015C
:1011100080E390E00E94C3089A94F7CF8A94F30189
:10112000E80DF11D8081B60190E00E94C308811096
:10113000F5CF222009F442CEB60180E290E00E9471
:10114000C3082A94F6CFF6018681978102C08FEFFB
:101150009FEF2B96E2E10C947909FC010590615018
:1011600070400110D8F7809590958E0F9F1F0895BD
:10117000FC016150704001900110D8F78095909566
:101180008E0F9F1F08950F931F93CF93DF93FB0143
:10119000238121FD03C08FEF9FEF2CC022FF16C0DB
:1011A00046815781248135814217530744F4A08139
:1011B000B1819D012F5F3F4F318320838C93268126
:1011C00037812F5F3F4F3783268314C08B01EC019B
:1011D000FB010084F185E02D0995892BE1F6D8010A
:1011E00016968D919C911797019617969C938E93C6
:1011F0001697CE01DF91CF911F910F910895FA01BB
:10120000AA27283051F1203181F1E8946F936E7F45
:101210006E5F7F4F8F4F9F4FAF4FB1E03ED0B4E036
:101220003CD0670F781F891F9A1FA11D680F791F77
:101230008A1F911DA11D6A0F711D811D911DA11D88
:1012400020D009F468943F912AE0269F1124301998
:10125000305D3193DEF6CF010895462F4770405D33
:101260004193B3E00FD0C9F7F6CF462F4F70405DE2
:101270004A3318F0495D31FD4052419302D0A9F73D
:10128000EACFB4E0A6959795879577956795BA9537
:10129000C9F700976105710508959B01AC010A2EFD
:1012A00006945795479537952795BA95C9F7620FD4
:1012B000731F841F951FA01D08952F923F924F9278
:1012C0005F926F927F928F929F92AF92BF92CF92D6
:1012D000DF92EF92FF920F931F93CF93DF93CDB7DF
:1012E000DEB7CA1BDB0B0FB6F894DEBF0FBECDBF57
:1012F00009942A88398848885F846E847D848C8428
:101300009B84AA84B984C884DF80EE80FD800C8130
:101310001B81AA81B981CE0FD11D0FB6F894DEBF13
:0C1320000FBECDBFED010895F894FFCF83
:10132C0050434638353734204932432F54574900FF
:10133C00252E32782000252E32783A00257820216F
:06134C003D2025780000A1
:00000001FF
